:10009600900886E493FEA3E493FFC007C0068E8211
:1000A6008F83120011D006D007220200B3AD82AEB4
:1000B60083AFF0120805600122900888E493FBA341
:1000C600E493FCC004C0031200D2800BC003C0043A
:1000D6008D828E838FF022D003D00422AF82C2ACF1
:1000E600C2998F9910990280FBD2AC22AD82AE8361
:1000F600AFF07C00BC03005029EC2DF9E43EFA8FEA
:100106000389828A838BF0120805F582C007C00630
:10011600C005C0041200E2D004D005D006D0070CFA
:1001260080D22275820D1200E275820A0200E2AFC9
:1001360082758230C0071200E27582781200E2D022
:10014600077E00753A108E3B8F828E83120821AE91
:10015600827F00753A108F3B8E828F83120821AE04
:1001660082AF83C3EE940AEF6480948050088E05B4
:1001760074302DFD800474372EFD8D821200E2024C
:100186000129750873750974750A61750B72750C0A
:1001960074750D20750E73750F7575106375116581
:1001A60075127375137375144075156375166F752F
:1001B6001772751865751967751A69751B757F004D
:1001C600BF2500500D75822DC0071200E2D0070F23
:1001D60080EE12012975822D1200E275822D120021
:1001E600E275822D1200E27582201200E2758220ED
:1001F6001200E27F00BF14005010EF2408F9878236
:10020600C0071200E2D0070F80EB7582201200E2D1
:100216007582201200E275822D1200E275822D127F
:1002260000E275822D1200E21201297F00BF25002F
:10023600500D75822DC0071200E2D0070F80EE2206
:0400000002001332B5
:03000B000202CA24
:0C006C007521FC752266752305752401C2
:0300930002000E5A
:03000E0002029556
:10024600AE82AF83EE4F601B7C467D00EC24FFFA46
:10025600ED34FFFB8A048B05EA4B70F01EBEFF01EE
:100266001F80E122AE894306018E8985218C852275
:100276008AD2A9D28CD2AF22AE894306208E897546
:100286008DFD758BFDD28EC2AC759850D2AF229083
:1002960001F412024612026A12027E12009612013E
:1002A6008875250075260075270090002575F04095
:1002B60012075B90002575F0401200B09000961270
:1002C600024680DDC020C0E0C0F0C082C083C00707
:1002D600C006C005C004C003C002C001C000C0D033
:1002E60075D00085218C85228A90088AE493FEA326
:1002F600E493FFC007C0068E828F83120011D006DA
:10030600D00790088CE493FEA3E493FFC007C006D1
:100316008E828F83120011D006D007D0D0D000D0A5
:1003260001D002D003D004D005D006D007D083D0A8
:0803360082D0F0D0E0D02032AB
:10007800752800752900752A00752B00752C0075E8
:0B0088002D00752E00752F0175300053
:10033E00752900752C00752800752F017530002267
:10034E00E582FFB5280122C2A5EF75F006A4FEAF27
:10035E00F0245BFCEF3408FD8C828D83A3E49324A0
:10036E00FF92A38C828D83A3A3E49324FF92A4E532
:10037E0029FD700DEE245BF582EF3408F583E493CE
:10038E00FD8D29C2A0EE245BFCEF3408FD8C828D1E
:10039E0083A3A3A3A3E49324FF92A18C828D83A3B2
:1003AE00A3A3A3A3E49324FF92A2E52CFD7012EE67
:1003BE00245BFEEF3408FF8E828F83A3A3A3E49306
:1003CE00FD8D2C22AF82E52F700F900885E493FEF1
:1003DE00C3E5309E5003053022BF07028019BF08C7
:1003EE00028046BF0903020467BF0A0302047CBFF2
:1003FE000B02805D02048FE5242529FF8F29AE298B
:10040E00AD23C3ED9F50048D0780028E078F29E523
:10041E0024252CFF8F2CAE2CAD23C3ED9F50048DC5
:10042E000780028E078F2C8058AF29AE24C3EE9F13
:10043E0040048F058004EFC39EFD8D29AF2CAE24A2
:10044E00C3EE9F40048F058004EFC39EFD8D2C806C
:10045E003085232985232C8028AF2CAE24C3EE9F14
:10046E0040048F058004EFC39EFD8D2C8013AF29B1
:10047E00AE24C3EE9F40048F058004EFC39EFD8D16
:10048E0029752F007530002275820002034EAD8251
:10049E00AE83AFF074012DFAE43EFB8F048A828B9B
:1004AE00838CF0120805FC24F350030205A6EC24FD
:1004BE000A83F582EC241183F583E473A3E4FB1223
:1004CE0029A6A6A6A63F5B778D050404050505059E
:1004DE00050505050505B280758201C007C006C079
:1004EE000512034ED005D006D0070205A6B28175BF
:1004FE008202C007C006C00512034ED005D006D03A
:10050E00070205A6B282758203C007C006C0051297
:10051E00034ED005D006D0070205A6B2837582041D
:10052E00C007C006C00512034ED005D006D0078006
:10053E0067B280758201C007C006C00512034E75F2
:10054E00820B1203D2D005D006D007804BB2817534
:10055E008202C007C006C00512034E75820B12033D
:10056E00D2D005D006D007802FB282758205C00783
:10057E00C006C00512034ED005D006D0078019B2B2
:10058E0083758206C007C006C00512034ED005D083
:10059E0006D007800302033E74022DFDE43EFE8D5D
:1005AE00828E838FF0120805FF6034BF0502800F24
:1005BE00BF06028012BF07028015BF08288018B23E
:1005CE00847582070203D2B2857582080203D2B205
:1005DE00867582090203D2B28775820A0203D2752A
:1005EE002F0175300022E5297007F52AF52BC2A5DB
:1005FE0022AF2BC3EF95295008D2A5EF04F52B801F
:10060E0002C2A5AF2A0F8F2AC3EF95234006752A83
:10061E0000752B0022E52C7007F52DF52EC2A022B9
:10062E00AF2EC3EF952C5008D2A0EF04F52E80020A
:10063E00C2A0AF2D0F8F2DC3EF95234006752D0051
:04064E00752E0022E3
:10085B000000000000000201000201000200010282
:10086B000001000000020100020100000000050170
:10087B00000500010500010501000396049C04F42A
:03088B000523063C
:100652007F00BF09005010EF2431F98782C00712D2
:100662000135D0070F80EB020129AF827E017D00A8
:100672007C00EF30E004D2958002C295EFC313FFF5
:100682000000C297309403EE2DFD8E03EB2BFED2B9
:10069200970CEC24F850DBD2958D822285823A8524
:1006A200833B85F03C753D0074F4253D500122E505
:1006B2003D75F004A4FAABF02497FEEB3408FF8EEC
:1006C200828F83E4932431F987058E828F83A3E49A
:1006D20093FFEDB507028002807AE53D24FC5006C7
:1006E20074F8253D50497401253AF53EE4353BF551
:1006F2003F853C40E53D75F004A42497FC74083521
:10070200F0FF8C828F83A3A3E493FE853E82853F14
:10071200838540F012079D8C828F83A3A3A3E49369
:10072200FF853A82853B83853CF012079D802574C4
:1007320002253AFDE4353BFEAF3CEA2497FAEB345E
:1007420008FB8A828B83A3A3E493FC8D828E838F22
:10075200F012079D053D0206AAAD82AE83AFF0C23C
:10076200967C00BC09005028EC2431F9EC90088EEC
:1007720093F582C007C006C005C004C00112066C12
:10078200E582D001D004D005D006D007F70C80D383
:0B079200D2968D828E838FF002069EAF
:10088E0001420000000000000003EF010003BF0260
:10089E0000037F030003DF040004EF050004BF061E
:1008AE0000047F070004DF080004FB090004FE0AB1
:0908BE000004F70B0004FD0C001E
:06004200E478FFF6D8FD92
:100020007900E94400601B7A009008C7780175A048
:1000300000E493F2A308B8000205A0D9F4DAF2753F
:02004000A0FF1F
:10079D0020F71130F6138883A88220F509F6A88377
:1007AD007583002280FEF280F5F022E53A453B602C
:1007BD00467A01E53A25E0F53AE53B334012F53B43
:1007CD00E582953AE583953B40030A80E6C3E53B18
:1007DD0013F53BE53A13F53AC3E582953AF5F0E5A5
:1007ED0083953B4005F58385F082C3E53B13F53BCF
:0807FD00E53A13F53ADAE122B6
:100048007800E84400600A790175A000E4F309D853
:10005800FC7800E84400600C7900900001E4F0A30B
:04006800D8FCD9FAED
:0F001100E473758140120857E582600302000E08
:1008050020F71430F6148883A88220F507E6A8831C
:1008150075830022E280F7E49322E022C2D5E583C6
:1008250030E70DD2D5E4C39582F582E49583F5834F
:10083500E53B30E70BE4C3953AF53AE4953BF53BE8
:100845001207B830D50BE4C39582F582E49583F59C
:06085500832275820022DF
:00000001FF
