:10009000900C2FE493FEA3E493FFC007C0068E826A
:1000A0008F83120011D006D007900BEDE493FEA3CE
:1000B000E493FFC007C0068E828F83120011D00622
:1000C000D007220200C6AD82AE83AFF0120B6CFCEB
:1000D0006051BC01028006BC0202802422900BEF1A
:1000E000E493FBA3E493FCC004C0031200F0800B74
:1000F000C003C0048D828E838FF022D003D00422EF
:10010000900C31E493FBA3E493FCC004C003120100
:1001100013800BC003C0048D828E838FF022D00326
:10012000D00422900BEFE493FBA3E493FCC007C040
:1001300006C005C004C00312013C800BC003C0040C
:100140008D828E838FF022D003D004D005D006D0CC
:1001500007900C31E493FBA3E493FCC004C00312AA
:100160000164800BC003C0048D828E838FF022D087
:1001700003D00422AF82C2ACC2998F991099028039
:10018000FBD2AC22AD82AE83AFF07C00BC0300504A
:1001900029EC2DF9E43EFA8F0389828A838BF012D1
:1001A0000B6CF582C007C006C005C004120174D0F4
:1001B00004D005D006D0070C80D22275820D120122
:1001C0007475820A020174AF82758230C007120111
:1001D00074758278120174D0077E00753A108E3BD8
:1001E0008F828E83120B88AE827F00753A108F3B10
:1001F0008E828F83120B88AE82AF83C3EE940AEF98
:100200006480948050088E0574302DFD800474370E
:100210002EFD8D821201740201BB7508737509747D
:10022000750A61750B72750C74750D20750E7375FA
:100230000F757510637511657512737513737514E9
:100240004075156375166F751772751865751967A2
:10025000751A69751B757F00BF2500500D75822DBD
:10026000C007120174D0070F80EE1201BB75822DFA
:1002700012017475822D12017475822D120174752C
:1002800082201201747582201201747F00BF140055
:100290005010EF2408F98782C007120174D0070FAD
:1002A00080EB7582201201747582201201747582B0
:1002B0002D12017475822D12017475822D12017434
:1002C0001201BB7F00BF2500500D75822DC00712A3
:0802D0000174D0070F80EE223B
:0400000002001332B5
:03000B0002035C91
:0C006C007521FC752266752305752401C2
:03008D0002000E60
:03000E00020327C3
:1002D800AE82AF83EE4F601B7C467D00EC24FFFAB4
:1002E800ED34FFFB8A048B05EA4B70F01EBEFF015C
:1002F8001F80E122AE894306018E8985218C8522E3
:100308008AD2A9D28CD2AF22AE894306208E8975B3
:100318008DFD758BFDD28EC2AC759850D2AF2290F0
:1003280001F41202D81202FC1203101200901202F9
:100338001A75250075260075270090002575F04070
:10034800120A0390002575F0401200C3900096121F
:1003580002D880DDC020C0E0C0F0C082C083C007E2
:10036800C006C005C004C003C002C001C000C0D0A0
:1003780075D00085218C85228A900BF1E493FEA329
:10038800E493FFC007C0068E828F83120011D00647
:10039800D007900BF3E493FEA3E493FFC007C006D5
:1003A8008E828F83120011D006D007D0D0D000D013
:1003B80001D002D003D004D005D006D007D083D016
:0803C80082D0F0D0E0D0203219
:10007800752800752900752A00752B00752C0075E8
:050088002D00752E00A3
:1003D000E582FFB5280122EF75F006A4FDAEF024FA
:1003E000C2FBEE340BFC8B828C83E49324FF92A53A
:1003F0008B828C83A3E49324FF92A38B828C83A3B0
:10040000A3E49324FF92A4EF7008900BECE493FC18
:100410008002AC308C29ED24C2FDEE340BFE8D82BF
:100420008E83A3A3A3E49324FF92A08D828E83A343
:10043000A3A3A3E49324FF92A18D828E83A3A3A3FD
:10044000A3A3E49324FF92A2EF7008900BECE49333
:10045000FE8002AE308E2C8F2822752F00900BEC80
:10046000E493F5307582000203D0E582FFB52F01D9
:1004700022EFF52F24F3500122EF240A83F582EFB7
:10048000241183F583E4735E64646464A1C1EE188F
:1004900064644252050505050504040405050505C7
:1004A00005B284E5242530F530C395234008900B30
:1004B000ECE493FF8002AF308F3085302985302CFB
:1004C00022B285900BECE493B53004AF238002AFE9
:1004D00030EFF530C39524F530AF24C3EF953040AD
:1004E000028002AF308F3085302985302C22B286D1
:1004F000C3E51C95305017900BECE493B53004AF76
:10050000238002AF30EFC3951CFE7F0080047E0085
:100510007F008E2985302C22B287853029C3E51CC7
:1005200095305017900BECE493B53004AF23800264
:10053000AF30EFC3951CFE7F0080047E007F008EED
:100540002C22B282900BECE493F530853029853073
:100550002C22B28385243085302985302C228530A9
:100560002985302C22AD82AE83AFF074012DFAE4E0
:100570003EFB8F048A828B838CF0120B6CFC24F57B
:100580005003020640EC240A83F582EC240F83F525
:1005900083E4732EA9C0D6EC404040400218060503
:1005A000050505060606060606B280758201C00727
:1005B000C006C0051203D0D005D006D00702064001
:1005C000B281758202C007C006C0051203D0D005F3
:1005D000D006D007806AB282758203C007C006C009
:1005E000051203D0D005D006D0078054B28375829F
:1005F00004C007C006C0051203D0D005D006D0073E
:10060000803EB280758205C007C006C0051203D0C7
:10061000D005D006D0078028B281758206C007C0F9
:1006200006C0051203D0D005D006D007801275820F
:1006300000C007C006C0051203D0D005D006D00701
:1006400074022DFDE43EFE8D828E838FF0120B6CC2
:10065000F58202046AAF29900BECE493FEEFB50635
:1006600003D2A522EF7007F52AF52BC2A522AF2BE6
:10067000C3EF95295008D2A5EF04F52B8002C2A53F
:10068000AF2A0F8F2AC3EF95234006752A00752BDA
:100690000022AF2C900BECE493FEEFB50603D2A042
:1006A00022EF7007F52DF52EC2A022AF2EC3EF95D5
:1006B0002C5008D2A0EF04F52E8002C2A0AF2D0F5F
:1006C0008F2DC3EF95234006752D00752E0022ADAA
:1006D00082AE83AFF074012DFAE43EFB8F048A8270
:1006E0008B838CF0120B6CFCBC0115758231C0073A
:1006F000C006C005120174D005D006D0070207A3BA
:10070000BC0215758232C007C006C005120174D044
:1007100005D006D0070207A3BC0314758233C007B7
:10072000C006C005120174D005D006D0078074BC85
:100730000414758234C007C006C005120174D005C8
:10074000D006D007805DEC7014758230C007C006FB
:10075000C005120174D005D006D0078046BC09142C
:10076000758239C007C006C005120174D005D006D5
:10077000D007802FBC0A1A758231C007C006C00599
:10078000120174758230120174D005D006D0078032
:100790001275822DC007C006C005120174D005D0A5
:1007A00006D00775827CC007C006C005120174D050
:1007B00005D006D00774022DFDE43EFE8D828E83A7
:1007C0008FF0120B6CFFBF05087582351201748023
:1007D00054BF06087582361201748049BF07087538
:1007E0008237120174803EBF080875823812017486
:1007F0008033EF70087582301201748028BF0B0EB1
:100800007582311201747582311201748017BF0C28
:100810000E75823112017475823212017480067570
:10082000822D1201740201BBAD82AE83AFF0120BB8
:100830006CFC900BECE493FBECB5031A758239C0A9
:1008400007C006C005120174758239120174D00503
:10085000D006D007801474302CF582C007C006C0C3
:1008600005120174D005D006D00775822DC007C0CF
:1008700006C005120174D005D006D00774012DFA08
:10088000E43EFB8F048A828B838CF0120B6C243045
:10089000F582C007C006C00512017475822D1201D1
:1008A00074D005D006D00774022DFDE43EFE8D8283
:1008B0008E838FF0120B6C2430F5821201740201CA
:0108C000BB7C
:100BC200000000000000010100010100010001011C
:100BD200000100000001010001010000000001010C
:100BE20000010001010001010100635A046505557D
:030BF20006920662
:1008C1007F00BF09005010EF2431F98782C0071261
:1008D10001C7D0070F80EB0201BBAF827E017D0013
:1008E1007C00EF30E004D2958002C295EFC313FF84
:1008F1000000C297309403EE2DFD8E03EB2BFED248
:10090100970CEC24F850DBD2958D822285823A85B2
:10091100833B85F03C753D0074F4253D500122E593
:100921003D75F004A4FAABF024FEFEEB340BFF8E10
:10093100828F83E4932431F987058E828F83A3E428
:1009410093FFEDB5070280030209FEE53D24FC504B
:100951000C7408B53D0280057409B53D4974012543
:100961003AF53EE4353BF53F853C40E53D75F00405
:10097100A424FEFC740B35F0FF8C828F83A3A3E4C7
:1009810093FE853E82853F838540F0120B048C8265
:100991008F83A3A3A3E493FF853A82853B83853CA0
:1009A100F0120B0480577402253AF53EE4353BF50D
:1009B1003F853C40EA24FEFCEB340BFF8C828F83A5
:1009C100A3A3E493FF853E82853F838540F0120B0C
:1009D10004853A82853B83853CF0120B6C701EEADC
:1009E10024FEFAEB340BFB8A828B83A3A3A3E4934B
:1009F100FF853A82853B83853CF0120B04053D025D
:100A01000919AD82AE83AFF0C2967C00BC090050DB
:100A110028EC2431F9EC900BF593F582C007C00660
:100A2100C005C004C0011208DBE582D001D004D0AA
:100A310005D006D007F70C80D3D2968D828E838F96
:040A4100F002090DA9
:100BF50001420000000000000003EF010103BF02F5
:100C050001037F030103DF040104EF050204BF06AE
:100C150002047F070204DF080204FB090104FE0A3F
:090C25000104F70B0204FD0C02AE
:100A4500900C2EE493F51C751D0022AD82AE83AF8C
:100A5500F074022DFDE43EFE8D828E838FF0120B25
:100A65006CFCB51D01228C1D8D828E838FF0120BBF
:100A75006CFFBF0B028005BF0C318017B282E524E5
:100A8500251CF51CAF23C3E51C9F40028002AF1C4B
:100A95008F1C22B283E51CC39524F51CAF24C3EF3C
:100AA500951C40028002AF1C8F1C22751D0022ADD3
:100AB50082AE83AFF074022DFDE43EFE8D828E83FF
:100AC5008FF0120B6CFFBF0B147582311201747518
:100AD500823112017475822D1201748015BF0C12BA
:100AE50075823112017475823212017475822D126C
:0F0AF5000174AF1C74302FF5821201740201BB23
:050C2E0002450A500A16
:06004200E478FFF6D8FD92
:100020007900E94400601B7A00900C33780175A0D8
:1000300000E493F2A308B8000205A0D9F4DAF2753F
:02004000A0FF1F
:100B040020F71130F6138883A88220F509F6A8830C
:100B14007583002280FEF280F5F022E53A453B60C1
:100B2400467A01E53A25E0F53AE53B334012F53BD8
:100B3400E582953AE583953B40030A80E6C3E53BAD
:100B440013F53BE53A13F53AC3E582953AF5F0E53A
:100B540083953B4005F58385F082C3E53B13F53B64
:080B6400E53A13F53ADAE1224B
:100048007800E84400600A790175A000E4F309D853
:10005800FC7800E84400600C7900900001E4F0A30B
:04006800D8FCD9FAED
:0F001100E473758140120BBEE582600302000E9E
:100B6C0020F71430F6148883A88220F507E6A883B2
:100B7C0075830022E280F7E49322E022C2D5E5835C
:100B8C0030E70DD2D5E4C39582F582E49583F583E5
:100B9C00E53B30E70BE4C3953AF53AE4953BF53B7E
:100BAC00120B1F30D50BE4C39582F582E49583F5C7
:060BBC0083227582002275
:00000001FF
