:10009000900A0EE493FEA3E493FFC007C0068E828D
:1000A0008F83120011D006D007220200ADAD82AEC0
:1000B00083AFF012098D600122900A10E493FBA334
:1000C000E493FCC004C0031200CC800BC003C00446
:1000D0008D828E838FF022D003D00422AF82C2ACF7
:1000E000C2998F9910990280FBD2AC22AD82AE8367
:1000F000AFF07C00BC03005029EC2DF9E43EFA8FF0
:100100000389828A838BF012098DF582C007C006AD
:10011000C005C0041200DCD004D005D006D0070C06
:1001200080D22275820D1200DC75820A0200DCAFDB
:1001300082758230C0071200DC7582781200DCD034
:10014000077E007539108E3A8F828E831209A9AE10
:10015000827F007539108F3A8E828F831209A9AE83
:1001600082AF83C3EE940AEF6480948050088E05BA
:1001700074302DFD800474372EFD8D821200DC0258
:100180000123750873750974750A61750B72750C16
:1001900074750D20750E73750F7575106375116587
:1001A00075127375137375144075156375166F7535
:1001B0001772751865751967751A69751B757F0053
:1001C000BF2500500D75822DC0071200DCD0070F2F
:1001D00080EE12012375822D1200DC75822D120033
:1001E000DC75822D1200DC7582201200DC75822005
:1001F0001200DC7F00BF14005010EF2408F9878242
:10020000C0071200DCD0070F80EB7582201200DCE3
:100210007582201200DC75822D1200DC75822D1291
:1002200000DC75822D1200DC1201237F00BF250047
:10023000500D75822DC0071200DCD0070F80EE2212
:0400000002001332B5
:03000B000202C42A
:0C006C007521FC752266752305752401C2
:03008D0002000E60
:03000E0002028F5C
:10024000AE82AF83EE4F601B7C467D00EC24FFFA4C
:10025000ED34FFFB8A048B05EA4B70F01EBEFF01F4
:100260001F80E122AE894306018E8985218C85227B
:100270008AD2A9D28CD2AF22AE894306208E89754C
:100280008DFD758BFDD28EC2AC759850D2AF229089
:1002900001F412024012026412027812009012015C
:1002A0008275250075260075270090002575F040A1
:1002B0001208E390002575F0401200AA90009612F3
:1002C000024080DDC020C0E0C0F0C082C083C00713
:1002D000C006C005C004C003C002C001C000C0D039
:1002E00075D00085218C85228A900A12E493FEA3A2
:1002F000E493FFC007C0068E828F83120011D006E0
:10030000D007900A14E493FEA3E493FFC007C0064D
:100310008E828F83120011D006D007D0D0D000D0AB
:1003200001D002D003D004D005D006D007D083D0AE
:0803300082D0F0D0E0D02032B1
:10007800752800752900752A00752B00752C0075E8
:050088002D00752E00A3
:10033800752900752C0075280022E582FFB5280173
:1003480022EF75F006A424E3FE740935F0FF8E82CF
:100358008F83E49324FF92A58E828F83A3E4932452
:10036800FF92A38E828F83A3A3E49324FF92A475A4
:1003780029638E828F83A3A3A3E49324FF92A08E84
:10038800828F83A3A3A3A3E49324FF92A18E828FD9
:1003980083A3A3A3A3A3E49324FF92A2752C6322AF
:1003A800AF82BF00028060BF07028014BF080280CE
:1003B80040BF09028049BF0A028048BF0B4F8038FE
:1003C800E5242529FF8F29AE29AD23C3ED9F5004CD
:1003D8008D0780028E078F29E524252CFF8F2CAEF0
:1003E8002CAD23C3ED9F50048D0780028E078F2C00
:1003F80022852F29852F2C2285232985232C2285A8
:100408002F2922852F2C22752963752C632275824A
:1004180000120342900A0DE493F52F22AD82AE83B9
:10042800AFF074012DFAE43EFB8F048A828B838C33
:10043800F012098DFC24F550030204EFEC240A8322
:10044800F582EC240F83F583E473EC687E94AAEFBD
:10045800EFEFEFC0D6040404040404040404040405
:10046800B280758201C007C006C005120342D005DC
:10047800D006D0078071B281758202C007C006C05D
:1004880005120342D005D006D007805BB282758280
:1004980003C007C006C005120342D005D006D00726
:1004A8008045B283758204C007C006C005120342A6
:1004B800D005D006D007802FB280758205C007C04E
:1004C80006C005120342D005D006D0078019B281B4
:1004D800758206C007C006C005120342D005D006C3
:1004E800D007800302033874022DFDE43EFE8D829E
:1004F8008E838FF012098DFF24F3500122EF240A16
:1005080083F582EF241183F583E473777F7F7F7F00
:100518002D353D457F7F4D6105050505050505051B
:100528000505050505B2847582070203A8B285751D
:1005380082080203A8B2867582090203A8B28775E9
:10054800820A0203A8B282AF23C3E52F9F4002802C
:1005580005E524252FFF8F2F22B283AF24C3EF9503
:100568002F40048F068005E52FC39FFE8E2F22B2F1
:10057800877582000203A822AF29BF630122EF70AA
:1005880007F52AF52BC2A522AF2BC3EF95295008F2
:10059800D2A5EF04F52B8002C2A5AF2A0F8F2AC37C
:1005A800EF95234006752A00752B0022AF2CBF63F8
:1005B8000122EF7007F52DF52EC2A022AF2EC3EF52
:1005C800952C5008D2A0EF04F52E8002C2A0AF2DC2
:1005D8000F8F2DC3EF95234006752D00752E002231
:1005E800AD82AE83AFF074012DFAE43EFB8F048A2E
:1005F800828B838CF012098DFCBC0115758231C089
:1006080007C006C0051200DCD005D006D0070206D8
:10061800BCBC0215758232C007C006C0051200DCDA
:10062800D005D006D0070206BCBC0314758233C0BF
:1006380007C006C0051200DCD005D006D0078074BC
:10064800BC0414758234C007C006C0051200DCD093
:1006580005D006D007805DEC7014758230C007C0E5
:1006680006C0051200DCD005D006D0078046BC09BC
:1006780014758239C007C006C0051200DCD005D049
:1006880006D007802FBC0A1A758231C007C006C081
:10069800051200DC7582301200DCD005D006D007C8
:1006A800801275822DC007C006C0051200DCD00577
:1006B800D006D00775827CC007C006C0051200DCD2
:1006C800D005D006D00774022DFDE43EFE8D828E43
:1006D800838FF012098DFFBF05087582351200DC83
:1006E8008054BF06087582361200DC8049BF0708AF
:1006F8007582371200DC803EBF0808758238120008
:10070800DC8033EF70087582301200DC8028BF0B64
:100718000E7582311200DC7582311200DC8017BF41
:100728000C0E7582311200DC7582321200DC8006F4
:1007380075822D1200DC020123AD82AE83AFF01268
:10074800098DFCBC631A758239C007C006C0051242
:1007580000DC7582391200DCD005D006D007801481
:1007680074302CF582C007C006C0051200DCD00525
:10077800D006D00775822DC007C006C0051200DC60
:10078800D005D006D00774012DFAE43EFB8F048A09
:10079800828B838CF012098D2430F582C007C00645
:1007A800C0051200DC75822D1200DCD005D006D001
:1007B8000774022DFDE43EFE8D828E838FF01209B0
:0B07C8008D2430F5821200DC020123BA
:1009E30000000000000001010001010001000101FD
:1009F30000010000000101000101000000000101ED
:100A03000001000101000101010003160424048018
:030A130005B40522
:1007D3007F00BF09005010EF2430F98782C0071251
:1007E300012FD0070F80EB020123AF827E017D0032
:1007F3007C00EF30E004D2958002C295EFC313FF73
:100803000000C297309403EE2DFD8E03EB2BFED236
:10081300970CEC24F850DBD2958D822285823985A2
:10082300833A85F03B753C0074F4253C500122E586
:100833003C75F004A4FAABF0241FFEEB340AFF8EE0
:10084300828F83E4932430F987058E828F83A3E418
:1008530093FFEDB5070280030208DEE53C24FC505C
:100863000C7408B53C0280057409B53C4974012534
:1008730039F53DE4353AF53E853B3FE53C75F004FB
:10088300A4241FFC740A35F0FF8C828F83A3A3E496
:1008930093FE853D82853E83853FF01209258C8238
:1008A3008F83A3A3A3E493FF853982853A83853B92
:1008B300F0120925802574022539FDE4353AFEAF8F
:1008C3003BEA241FFAEB340AFB8A828B83A3A3E45B
:1008D30093FC8D828E838FF0120925053C02082B31
:1008E300AD82AE83AFF0C2967C00BC09005028EC09
:1008F3002430F9EC900A1693F582C007C006C005B0
:10090300C004C0011207EDE582D001D004D005D0A8
:1009130006D007F70C80D3D2968D828E838FF00298
:02092300081FAB
:100A160001420000000000000003EF010003BF02D6
:100A260000037F030003DF040004EF050004BF0694
:100A360000047F070004DF080004FB090004FE0A27
:090A46000004F70B0004FD0C0094
:06004200E478FFF6D8FD92
:100020007900E94400601B7A00900A4F780175A0BE
:1000300000E493F2A308B8000205A0D9F4DAF2753F
:02004000A0FF1F
:1009250020F71130F6138883A88220F509F6A883ED
:100935007583002280FEF280F5F022E539453A60A4
:10094500467A01E53925E0F539E53A334012F53ABD
:10095500E5829539E583953A40030A80E6C3E53A91
:1009650013F53AE53913F539C3E5829539F5F0E51F
:1009750083953A4005F58385F082C3E53A13F53A48
:08098500E53913F539DAE1222E
:100048007800E84400600A790175A000E4F309D853
:10005800FC7800E84400600C7900900001E4F0A30B
:04006800D8FCD9FAED
:0F001100E47375813F1209DFE582600302000E80
:10098D0020F71430F6148883A88220F507E6A88393
:10099D0075830022E280F7E49322E022C2D5E5833D
:1009AD0030E70DD2D5E4C39582F582E49583F583C6
:1009BD00E53A30E70BE4C39539F539E4953AF53A64
:1009CD0012094030D50BE4C39582F582E49583F589
:0609DD0083227582002256
:00000001FF
